:10091500A1B0BDE1CAF8303031A1B1C3FCC1EECA06
:10092500B6B1F0B3C9B9A60D0A00A1B0C7B0BDF8FC
:10093500303130A1B1C3FCC1EECAB6B1F0B3C9B90B
:10094500A60D0A00A1B0BAF3CDCB303131A1B1C3A8
:10095500FCC1EECAB6B1F0B3C9B9A60D0A00A1B083
:10096500D7F3D7AA313030A1B1C3FCC1EECAB6B1B5
:10097500F0B3C9B9A60D0A00A1B0D3D2D7AA3130B8
:1009850031A1B1C3FCC1EECAB6B1F0B3C9B9A60D68
:100995000A00A1B0C6F4B6AFB1DCD5CFC4A3CABDB9
:1009A500313130A1B1C3FCC1EECAB6B1F0B3C9B99A
:1009B500A60D0A00A1B0CDCBB3F6B1DCD5CFC4A34B
:1009C500CABD313131A1B1C3FCC1EECAB6B1F0B374
:1009D500C9B9A60D0A00C7EBD6D8D0C2CAB6B1F0C0
:0909E500B7A2BFDAC1EE0D0A0051
:0610C000011C00011B00F1
:100EBE00E4F50912107E121060120F4B120FF08023
:100ECE002C781CE61460FA24F1601824DF60F224FA
:100EDE00317020781C7601120E6FEF70E4781C765C
:100EEE003180DE1210E1781EEFF6120CF6E4781C5B
:090EFE00F680CEE4781CF680C8F1
:10107E00B2C21210A8B2C21210A8B2C21210A8B2F6
:0C108E00C21210A8B2C21210A8B2C222F6
:101060007580FF7590FF75A0FF75B0FF75C0FF75A7
:0E10700092FFE4F591C2C3D289D2A8D2AF227A
:0A10B50000007F057E49DEFEDFFC2F
:0110BF00220E
:08103C008F148E138D128C112C
:10104400E4F515F516F517F518781174FF1208294B
:0B105400EC4D4E4F60051210B580EE11
:01105F00226E
:0C10A8007F117ED07D1BDDFEDEFCDFFA38
:0110B4002219
:03000300020F8C5D
:100F8C00C0E0C0F0C083C082C0D075D000C000C02B
:100F9C0001C002C003C004C005C006C007120BCEBE
:100FAC00D007D006D005D004D003D002D001D00099
:0B0FBC00D0D0D082D083D0F0D0E03243
:100CF600EF24FC602314603024FD606824F2603524
:100D060014604224E8604E242D70697BFF7A0979CD
:100D160015121017C29080387BFF7A09792F1210AE
:100D260017C290D291C292227BFF7A09794912109A
:100D360017C290803A7BFF7A097963121017D29016
:100D4600C291C292227BFF7A09797D121017D29046
:100D5600C291D292227BFF7A097997121017D2900C
:100D6600D291C2927BFF7A0979B9121017D290D22A
:0E0D760091D292227BFF7A0979DB12101722AC
:1009EE0074756F20626900000000000000000000B6
:1009FE000000000074696E672063686500000000E7
:100A0E0000000000000000007169616E206A696ECE
:100A1E00000000000000000000000000686F75205C
:100A2E007475690000000000000000000000000066
:100A3E007A756F207A6875616E0000000000000004
:100A4E0000000000796F75207A6875616E000000F5
:100A5E0000000000000000006269207A68616E6785
:100A6E00206D6F20736869000000000074756920A6
:100A7E006368750000000000000000000000000028
:080A8E000002040516172F08F1
:100F4B00D2B57F017E007D007C0012103CC2B57FC4
:100F5B00017E007D007C0012103CD2B57F017E002B
:100F6B007D007C0012103CC2A17F017E007D007CC5
:100F7B000012103CD2A17F017E007D007C0002108C
:010F8B003C29
:100A96007F061210D67D357F171210CB7F0A7E0097
:100AA6007D007C0012103C7F061210D67D037F89E4
:100AB6001210CB7F057E007D007C0012103C7D432A
:100AC6007FCF1210CB7F057E007D007C0012103C8C
:100AD6007D027FCB1210CB7D0A7F111210CBE4FD75
:100AE6007F1E1210CB7D3F7F191210CB7D487F1BD6
:100AF6001210CB7D1F7F1D1210CB7F0A7E007D005A
:100B06007C0012103C7D047FCD1210CB7F057E0049
:100B16007D007C0012103CE4FD7FB91210CB7D4FA6
:0C0B26007FCF1210CB7DFF7F6F0210CB41
:100E1000120A96E4FD7FBD1210CB7D487F17121099
:100E2000CB7F0A7E007D007C0012103C7D807F3CE1
:100E30001210CB7D077F3E1210CB7DFF7F38121042
:100E4000CB7D077F3A1210CBE4FD7F401210CB7DA3
:100E5000087F421210CBE4FD7F441210CB7D087F47
:0F0E6000461210CB7F017E007D007C0002103C0B
:100BCE00E4F508C2A87F2B1210D6781DA607E4FD07
:100BDE007F291210CBE4FD7F021210CB781DE63078
:100BEE00E42D7FB21210D6EF642170237FBF121056
:100BFE00D6BF351B7FBA1210D68F08E508D39400E6
:100C0E00400DE508D394045006781C7610800478C5
:100C1E001C7611E4FD7F2B1210CBE4FD7F1C12100D
:100C2E00CBE4FD7F291210CBE4FD7F021210CBE442
:100C3E00FD7F2B1210CBE4FD7FBA1210CBE4FD7FAB
:100C4E00BC1210CB7D017F081210CBE4FD7F081281
:040C5E0010CBD2A83D
:010C6200226F
:100E6F00E4F50AF50BF50A1210E77F327E007D00DC
:100E7F007C0012103C120B32EF700280117F0A7E41
:100E8F00007D007C0012103C120C63EF7010120FEB
:100E9F004B7F327E007D007C0012103C8005750B6D
:0E0EAF00018009050AE50AC3940540BBAF0B9C
:010EBD002212
:100FC700E4F510F50F7FB21210D6BF210575100199
:100FD70080147F0A7E007D007C0012103C050FE51F
:080FE7000FC3940A40DFAF10B4
:010FEF0022DF
:0310E700020E10E6
:100C6300C2A87D507F351210CB7D097F1C1210CB9B
:100C73007D207FBD1210CB7D017F081210CB7F0139
:100C83007E007D007C0012103CE4FD7F081210CB37
:100C93007F017E007D007C0012103C120FC7EF70B5
:100CA30002FF227D0B7F1C1210CB7DFF7FB212103F
:100CB300CB7F017E007D007C0012103C7D067F37D8
:100CC3001210CB7F017E007D007C0012103C7D065C
:100CD3007F371210CB7F057E007D007C0012103C15
:100CE3007D107F291210CBE4FD7FBD1210CBD2A85B
:030CF3007F01225C
:100B3200750D01E4F50C120FC7EF7005F50D020BF0
:100B4200CBE50C900A8E93FD7FC11210CBE4FD7FA2
:100B5200C31210CB7D047F081210CB7F017E007D73
:100B6200007C0012103CE4FD7F081210CB7F017E56
:100B7200007D007C0012103CE4F50EE50C75F014CB
:100B8200A424EEF582E43409F583E582250EF5828C
:100B9200E43583F583E493FD600E7F051210CB05E7
:100BA2000EE50EC3941440D3AD0E7FB91210CB7D67
:100BB200FF7FB21210CB7D047F371210CB050CE5FC
:0B0BC2000CC394085003020B38AF0D69
:010BCD002205
:0610E1007FC51210D622AB
:0B10CB00908100EFF0908000EDF0221B
:0B10D600908100EFF0908000E0FF220E
:0410C6000219258066
:100FF000759850758920AE19AF1AAB07AA06E4F9A7
:10100000F8FF7EE1FDFC120F071208198F8B8F8D00
:07101000D28ED2ACD2AF2258
:030023000210EADE
:0110EA0032D3
:0E109A00C2ACC2998F993099FDC299D2AC2296
:101017008B0A8A0B890CAB0AAA0BA90C1208006071
:1010270013050CE50C7002050B14F9120800FF12EA
:05103700109A80E22286
:03000000020D846A
:0C0D8400787FE4F6D8FD75811E020DCBCF
:10080000BB010689828A83E0225002E722BBFE02F6
:09081000E32289828A83E4932229
:100F0700C2D5E830E70FB2D5E4C39BFBE49AFAE415
:100F170099F9E498F8EC30E717B2D5120F3D1208AB
:100F270083E4C39BFBE49AFAE499F9E498F8800315
:100F370012088330D50DE4C39FFFE49EFEE49DFDB8
:040F4700E49CFC2208
:0E081900C3E49FFFE49EFEE49DFDE49CFC22F0
:100827007401FF3395E0FEFDFC080808E6CF2FF6BC
:1008370018E6CE3EF618E6CD3DF618E6CC3CF62295
:100D9000020EBEE493A3F8E493A34003F68001F2AD
:100DA00008DFF48029E493A3F85407240CC8C33364
:100DB000C4540F4420C8834004F456800146F6DF33
:100DC000E4800B01020408102040809010C0E47EF3
:100DD000019360BCA3FF543F30E509541FFEE49328
:100DE000A360010ECF54C025E060A840B8E493A3EF
:100DF000FAE493A3F8E493A3C8C582C8CAC583CA1A
:100E0000F0A3C8C582C8CAC583CADFE9DEE780BED1
:0110CA000025
:1008470075F008758200EF2FFFEE33FECD33CDCC68
:1008570033CCC58233C5829BED9AEC99E5829840EB
:100867000CF582EE9BFEED9AFDEC99FC0FD5F0D6C8
:10087700E4CEFBE4CDFAE4CCF9A88222B800C1B9F2
:100887000059BA002DEC8BF084CFCECDFCE5F0CB30
:10089700F97818EF2FFFEE33FEED33FDEC33FCEB69
:1008A70033FB10D703994004EB99FB0FD8E5E4F924
:1008B700FA227818EF2FFFEE33FEED33FDEC33FC11
:1008C700C933C910D7059BE99A4007EC9BFCE99A05
:1008D700F90FD8E0E4C9FAE4CCFB2275F010EF2F4A
:1008E700FFEE33FEED33FDCC33CCC833C810D7074A
:1008F7009BEC9AE899400AED9BFDEC9AFCE899F885
:0E0907000FD5F0DAE4CDFBE4CCFAE4C8F92217
:00000001FF
